:100000000C9434000C943E000C943E000C943E0082
:100010000C943E000C943E000C943E000C943E0068
:100020000C943E000C943E000C943E000C943E0058
:100030000C943E000C943E000C943E000C943E0048
:100040000C943E000C943E000C943E000C943E0038
:100050000C943E000C943E000C943E000C943E0028
:100060000C943E000C943E0011241FBECFEFD8E04C
:10007000DEBFCDBF0E9494000C94D9000C94000008
:10008000882321F081E06827862F02C081E090E07C
:1000900081700895882321F091E06927862F03C09D
:1000A00061E070E081E080FF05C06095262F21703F
:1000B00030E002C021E030E0232B21F081E048272E
:1000C000842F02C081E090E081700895442321F0E4
:1000D00091E02927922F03C021E030E091E090FFCA
:1000E00005C02095E22FE170F0E002C0E1E0F0E011
:1000F000882321F091E06927862F03C061E070E03A
:1001000081E080FF05C06095A62FA170B0E002C01D
:10011000A1E0B0E0AB2B21F0CF0121E0822702C0AB
:1001200081E090E081700895209A8AB1847E8AB936
:10013000FF24F394D9B189B111E0282F2270D22E77
:1001400081FF10E089B1C9B1C07141E0082F08708A
:1001500083FF40E0D170612F8D2F8F250E944A00D0
:10016000E82E41E0011140E0612F8D2F0E944A00EE
:1001700061E0DD2011F0C11160E0617091E00023C9
:1001800011F0C11190E02E2D482F892F81700E940F
:1001900066003FEF93ED20E3315090402040E1F7BF
:1001A00000C00000882311F0289AC4CF85B115B88B
:0601B000C1CFF894FFCF5F
:00000001FF
